:020000040000FA
:0400000007EF00F016
:100008005D82F4ED10F0E4EF0FF01D6E00019751E2
:100018009811D8A412EF00F014EF00F01EEF00F0D2
:10002800000E016E010EEAEC11F0000E0001986F4F
:10003800010E976F000E926F000E916F474A482A83
:10004800DD0E471807E1050E4818D8A42EEF00F07A
:1000580030EF00F03CEF00F0A00E036E2E0E046EA1
:10006800800E056E8CEC10F0000E486E000E476E88
:10007800DEC00BF0DFC00CF01DEC10F046BE50EFF8
:1000880000F0465007E1040E455CD8B04EEF00F092
:1000980050EF00F02AEF01F01D28D8A456EF00F029
:1000A80058EF00F098EF00F0010E00017527000EE0
:1000B800762377237823A10E75190AE1860E76191F
:1000C80007E177057811D8A46CEF00F06EEF00F027
:1000D80098EF00F0000E016E010EEAEC11F0000E30
:1000E800526E000E516E000E0001986F000E976F51
:1000F800000E596E060E586E000E446E000E436ECA
:10010800000E466E000E456E000E426E000E416EE9
:10011800000E926F000E916F000E906F000E8F6FA1
:10012800000EDF6F050EDE6F050E1D18D8B49FEFA9
:1001380000F0A1EF00F0AAEF00F0060E1D18D8A4F9
:10014800A8EF00F0AAEF00F020EF02F00001914BB9
:10015800922B414A422A050E1D18D8A4B6EF00F08A
:10016800B8EF00F0D0EF00F092BFC4EF00F092516A
:1001780009E1020E915DD8A0C4EF00F0C6EF00F0CF
:10018800D0EF00F0AA0E4524D96E000E4620DA6E94
:10019800300EDF6E454A462A060E1D18D8A4D7EF42
:1001A80000F0D9EF00F0E3EF00F0AA0E4524D96E75
:1001B800000E4620DA6E310EDF6E454A462A42BEF0
:1001C800EFEF00F0425009E1020E415CD8A0EFEFDA
:1001D80000F0F1EF00F007EF01F042BEFFEF00F092
:1001E800425007E1060E415CD8B0FDEF00F0FFEF8A
:1001F80000F007EF01F05850C00F096E2A0E9CEC72
:1002080012F0584A592A0001DE4BDF2B050E41181F
:100218004210D8A412EF01F014EF01F020EF01F022
:10022800000E426E010E416E000E596E060E586E9B
:10023800000EDF6F060EDE6F000E756F000E766F14
:10024800000E776F000E786F20EF02F0040E45184D
:100258004610D8A432EF01F034EF01F020EF02F09D
:10026800CBEC11F0AA0E016E000E026EA50E036E05
:10027800000E046E56EC10F001500210D8A447EF9F
:1002880001F049EF01F0AEEF01F0A00E0D6EBB0ECC
:100298000E6E0D0E0F6E000E106E0D06000E0E5A2D
:1002A8000F5A105A0D280AE10E2808E10F2806E116
:1002B8001028D8A462EF01F064EF01F051EF01F0CB
:1002C800000E016E010EEAEC11F0BC0E036E2F0E4B
:1002D800046E830E056E8CEC10F0140E036E2F0E58
:1002E800046EC10E056E8CEC10F0200E116EA10E7E
:1002F800126E070E136E000E146E1106000E125ABF
:10030800135A145A11280AE1122808E1132806E1A1
:100318001428D8A492EF01F094EF01F081EF01F0D6
:10032800000E016E010EEAEC11F0000E0001946F50
:10033800000E936F000E466E000E456EBEEC12F076
:10034800000E506E010E4F6E000E526E020E516E70
:1003580020EF02F00001934B942B94BFBFEF01F004
:10036800945107E1030E935DD8B0BDEF01F0BFEFE4
:1003780001F01EEF02F0A00E156EBB0E166E0D0EEC
:10038800176E000E186E1506000E165A175A185AD0
:1003980015280AE1162808E1172806E11828D8A424
:1003A800D8EF01F0DAEF01F0C7EF01F0000E016EAF
:1003B800010EEAEC11F08E0E036E2F0E046E830E02
:1003C800056E8CEC10F0230E036E2F0E046EC00E1B
:1003D800056E8CEC10F0CF0E096E000193513308B6
:1003E8009CEC12F0A00E196EBB0E1A6E0D0E1B6E51
:1003F800000E1C6E1906000E1A5A1B5A1C5A192890
:100408000AE11A2808E11B2806E11C28D8A40FEFE6
:1004180002F011EF02F0FEEF01F0000E466E000E42
:10042800456EBEEC12F0000E0001986F000E976F3B
:1004380020EF02F063EC0CF012000B6E560457101C
:10044800D8A429EF02F02BEF02F057EF02F0E30EE9
:10045800036E2F0E046E800E056E8CEC10F0D89093
:100468003F34D96E4034DA6ED00ED926000EDA2227
:10047800DECF03F0DDCF04F0830E056E8CEC10F0B8
:10048800D8903F34D96E4034DA6ED20ED926000E99
:10049800DA22DECF03F0DDCF04F0C30E056E8CEC5C
:1004A80010F081EF02F0E30E036E2F0E046EC00E03
:1004B800056E8CEC10F0D8903F34D96E4034DA6E6B
:1004C800CE0ED926000EDA22DECF03F0DDCF04F0FF
:1004D800830E056E8CEC10F0D8903F34D96E403402
:1004E800DA6ED00ED926000EDA22DECF03F0DDCF89
:1004F80004F0C30E056E8CEC10F0050E0B18D8B482
:1005080088EF02F08AEF02F093EF02F0060E0B1864
:10051800D8A491EF02F093EF02F09CEF02F0000EE6
:100528000001756F000E766F000E776F000E786F02
:100538000B28D8B4A2EF02F0A4EF02F03FEF03F0CB
:100548003D4A3E2A0BC04FF0506AE80E3D1807E1BD
:10055800030E3E18D8A4B3EF02F0B5EF02F0CFEFC8
:1005680003F0050E0B18D8A4BCEF02F0BEEF02F0A2
:1005780018EF03F0000E3E6E000E3D6E8F0E096EF2
:100588003FC001F040C002F0000E046E0A0E036E78
:100598003EEC0EF00150300F9CEC12F03F50401032
:1005A800D8A4D9EF02F0DBEF02F0DFEF02F0000E83
:1005B800526E030E516E3F044010D8A4E6EF02F0CD
:1005C800E8EF02F0ECEF02F0000E526E040E516EEE
:1005D800020E3F184010D8A4F4EF02F0F6EF02F034
:1005E800FAEF02F0000E526E050E516E030E3F1820
:1005F8004010D8A402EF03F004EF03F008EF03F073
:10060800000E526E060E516E040E3F184010D8A40C
:1006180010EF03F012EF03F03DEF03F0000E526EFF
:10062800070E516ECFEF03F0060E0B18D8A41FEF7C
:1006380003F021EF03F03DEF03F0000E526E000EC1
:10064800516E000E0001986F000E976F000E506EED
:10065800000E4F6E000E3E6E000E3D6E000E926F45
:10066800000E916F000E016E010EEAEC11F0CFEF53
:1006780003F0CFEF03F03D503E10D8B446EF03F03F
:1006880048EF03F0CBEF03F0E80E3D5C030E3E5855
:10069800D8B051EF03F053EF03F0CBEF03F0000EA7
:1006A8003E6E000E3D6E00018D4B8E2B060E4F18D0
:1006B8005010D8A462EF03F064EF03F099EF03F051
:1006C80040BE72EF03F0405007E1040E3F5CD8B023
:1006D80070EF03F072EF03F099EF03F08EBF7EEF37
:1006E80003F08E5109E1020E8D5DD8A07EEF03F074
:1006F80080EF03F099EF03F03F4A402A57BE90EF8E
:1007080003F0575007E1020E565CD8B08EEF03F0A5
:1007180090EF03F092EF03F0564A572A000E016E4D
:10072800010EEAEC11F0CFEF03F0050E4F18501050
:10073800D8A4A1EF03F0A3EF03F0CFEF03F040BE7E
:10074800AEEF03F0405008E13F04D8A0AEEF03F04D
:10075800B0EF03F0CFEF03F03F06D8A0400657BE36
:10076800BFEF03F0575009E1020E565CD8A0BFEF67
:1007780003F0C1EF03F0C4EF03F05606D8A0570604
:10078800000E016E010EEAEC11F0CFEF03F0000E3F
:100798003E6E000E3D6E0B28D8A4D5EF03F0D7EFC0
:1007A80003F028EF04F0010E00017527000E7623F0
:1007B80077237823E10E75190BE1930E761908E17A
:1007C800040E77197811D8A4ECEF03F0EEEF03F0DC
:1007D80028EF04F0000E016E010EEAEC11F0000E95
:1007E800526E000E516E000E406E000E3F6E000EEF
:1007F80000018E6F000E8D6F000E576E010E566E43
:10080800000E986F000E976F000E596E060E586E08
:10081800000E446E000E436E000E466E000E456ECE
:10082800000E426E000E416E000E926F000E916F28
:10083800000E906F000E8F6F000EDF6F050EDE6FDB
:10084800000E506E000E4F6E12001250800B1F6E7D
:1008580012501224266E11AE34EF04F036EF04F075
:1008680037EF04F026802650D8B43DEF04F03FEF70
:1008780004F054EF04F02628D8A445EF04F047EF1D
:1008880004F04FEF04F0000E0F6E000E106E000E15
:10089800116E000E126E118E000E126E5CEF04F0D7
:1008A800000E0F6E000E106E000E116E000E126E0E
:1008B8001650800B1F1A16501624276E15AE67EFB8
:1008C80004F069EF04F06AEF04F027802750D8B4E9
:1008D80070EF04F072EF04F087EF04F02728D8A433
:1008E80078EF04F07AEF04F082EF04F0000E136E54
:1008F800000E146E000E156E000E166E158E000E8C
:10090800166E8FEF04F0000E136E000E146E000EBC
:10091800156E000E166E1350141015101610D8A46C
:1009280098EF04F09AEF04F0B2EF04F0000E0F6EA7
:10093800000E106E000E116E000E126E800E111257
:100948007F0E12121F5012120FC00FF010C010F0BD
:1009580011C011F012C012F0F5EF05F02650D8A41E
:10096800B8EF04F0BAEF04F0C4EF04F0000E0F6E15
:10097800000E106E000E116E000E126EF5EF05F0EF
:10098800275026C017F0186A175E000E185A7F0EF7
:100998001724206E000E1820216E0FC01BF010C007
:1009A8001CF011C01DF012C01EF0000E0F6E000EDC
:1009B800106E000E116E000E126E000E226E000EEA
:1009C800236E000E246E000E256E000E276E25EF96
:1009D80005F02750D8B4F3EF04F0F5EF04F00CEF6E
:1009E80005F0D8901B361C361D361E36D8900F36AB
:1009F80010361136123625AE04EF05F006EF05F075
:100A080007EF05F00F80D890223623362436253696
:100A180013501B5C14501C5815501D5816501E5866
:100A2800D8A019EF05F01BEF05F024EF05F0258C91
:100A380013501B5E14501C5A15501D5A16501E5A3E
:100A4800272A190E27642BEF05F02DEF05F0EDEF9F
:100A580004F01B501C101D101E10D8B436EF05F002
:100A680038EF05F050EF05F0228050EF05F0D890F0
:100A78000F3610361136123625AE45EF05F047EF22
:100A880005F048EF05F00F80D8902236233624363B
:100A980025362006D8A0210611AE55EF05F057EFF0
:100AA80005F03BEF05F0000E276E25AE5EEF05F072
:100AB80060EF05F084EF05F0FF0E2214176EFF0EAD
:100AC8002314186EFF0E2414196E7F0E25141A6E47
:100AD8001750181019101A10D8B475EF05F077EFE1
:100AE80005F07BEF05F0010E276E84EF05F00FA0EF
:100AF80080EF05F082EF05F084EF05F077EF05F061
:100B08002750D8B48AEF05F08CEF05F0B0EF05F068
:100B1800010E0F26000E10221122122212A097EFAA
:100B280005F099EF05F0B0EF05F00FC017F010C011
:100B380018F011C019F012C01AF01A341A3219320A
:100B48001832173217C00FF018C010F019C011F082
:100B58001AC012F0204A212A21BEBBEF05F021500D
:100B680008E12028D8A0BBEF05F0BDEF05F0C8EFDD
:100B780005F0000E216E2068000E0F6E000E106E3C
:100B8800000E116E000E126E21BED5EF05F0215039
:100B980006E12004D8B0D3EF05F0D5EF05F0E3EF78
:100BA80005F0000E216E000E206E000E0F6E000E76
:100BB800106E000E116E000E126E000E1F6E20C019
:100BC80026F026A0EAEF05F0ECEF05F0EFEF05F0D0
:100BD800118EF0EF05F0119ED8902630126EA6EF18
:100BE80004F0120020EE0DF0210EDE6AE806FDE2A8
:100BF800000187518811D8A404EF06F006EF06F02B
:100C08000CEF06F0000E866F000E856F1CEF06F0E5
:100C1800010E5824016E000E5920026E000E046E5B
:100C28000A0E036E3EEC0EF001C085F002C086F09D
:100C38005428D8B422EF06F024EF06F04CEF06F063
:100C48003D4A3E2A54C04FF0506A900E3D1806E1C6
:100C58003E04D8A432EF06F034EF06F0CEEF06F0EB
:100C6800000E3E6E000E3D6E060E5418D8A43FEFDF
:100C780006F041EF06F0CEEF06F0000E016E010E11
:100C8800EAEC11F0000E526E020E516ECEEF06F035
:100C98003D503E10D8B453EF06F055EF06F0CAEFBA
:100CA80006F0900E3D5C010E3E58D8B05EEF06F09F
:100CB80060EF06F0CAEF06F0000E3E6E000E3D6EC5
:100CC800D30E036E2E0E046E800E056E8CEC10F0A3
:100CD800060E4F185010D8A474EF06F076EF06F001
:100CE8009FEF06F03B50395C3A50800A0B6E3C503F
:100CF800800A0B58D8B083EF06F085EF06F09FEF17
:100D080006F03ABE93EF06F03A5007E10A0E395C56
:100D1800D8B091EF06F093EF06F095EF06F0394A58
:100D28003A2A5B0E036E2E0E046EC00E056E8CEC16
:100D380010F0CEEF06F0050E4F185010D8A4A7EF0C
:100D480006F0A9EF06F0CEEF06F03ABEB4EF06F0D3
:100D58003A5008E13904D8A0B4EF06F0B6EF06F02F
:100D6800CEEF06F03ABEBBEF06F0BDEF06F0C0EFDF
:100D780006F03906D8A03A065B0E036E2E0E046EF6
:100D8800C00E056E8CEC10F0CEEF06F0000E3E6E35
:100D9800000E3D6E395000018525016E3A508621BE
:100DA800026E000E046E0A0E036E3EEC0EF001C0D9
:100DB80085F002C086F0000E316E000E306E000124
:100DC8008551100DF3503024050F2F6E2F5068EC0D
:100DD80012F00B6E0C6AD8903034D96E3134DA6E5A
:100DE8000D0ED926000EDA220BC0DEFF0CC0DDFF87
:100DF800304A312A31BE0AEF07F0315009E1100EAE
:100E0800305CD8A00AEF07F00CEF07F0E3EF06F02C
:100E1800C00E096E3950300F9CEC12F0C20E096EEC
:100E28000D509CEC12F0C30E096E0F509CEC12F0A2
:100E3800C40E096E11509CEC12F0C50E096E1350C9
:100E48009CEC12F0C60E096E15509CEC12F0C70E01
:100E5800096E17509CEC12F0C80E096E19509CECE4
:100E680012F0C90E096E1B509CEC12F0CA0E096EE6
:100E78001D509CEC12F0CB0E096E21509CEC12F028
:100E8800CC0E096E23509CEC12F0CD0E096E255045
:100E98009CEC12F0CE0E096E29509CEC12F0CF0E8D
:100EA800096E2B509CEC12F012003EEC12F0050E6D
:100EB800036E2F0E046E800E056E8CEC10F0B10ED2
:100EC800036E2E0E046EC00E056E8CEC10F09D9213
:100ED800F29CF29E89EC0DF021682268C00E096E22
:100EE80000018351300F9CEC12F0000183518411F2
:100EF800D8A481EF07F083EF07F03BEF08F0E30E8B
:100F0800026E2D0E036E23EC12F0060E026E2E0EEC
:100F1800036E23EC12F027EF08F0214A222A000181
:100F280087518811D8A49BEF07F09DEF07F0A3EF36
:100F380007F0000E206E000E1F6EB3EF07F0010ED3
:100F48005824016E000E5920026E000E046E0A0E1F
:100F5800036E3EEC0EF001C01FF002C020F02150DD
:100F68001F24016E22502020026E000E046E0A0E0D
:100F7800036E3EEC0EF001C01FF002C020F0000E20
:100F8800246E000E236E1F50100DF3502324050FFE
:100F98001E6E0D0E2324D96E000E2420DA6E1E500C
:100FA80068EC12F0DF6E234A242A24BEE5EF07F02E
:100FB800245009E1100E235CD8A0E5EF07F0E7EF15
:100FC80007F0C7EF07F02150300FB3EC12F06A0EAC
:100FD800026E2E0E036E23EC12F00D50B3EC12F0DD
:100FE8000E50B3EC12F00F50B3EC12F01050B3ECFB
:100FF80012F01150B3EC12F01250B3EC12F013507F
:10100800B3EC12F01450B3EC12F01550B3EC12F02C
:101018001650B3EC12F01750B3EC12F01850B3ECB2
:1010280012F01950B3EC12F01A50B3EC12F01B5036
:10103800B3EC12F01C50B3EC12F00A0EB3EC12F041
:101048000D0EB3EC12F03B50215C2250800A0C6E5E
:101058003C50800A0C58D8A034EF08F036EF08F05E
:1010680091EF07F0000E0001846F010E836F474A6D
:10107800482AE90E471807E1030E4818D8A447EF95
:1010880008F049EF08F05AEF08F0000E016E010E63
:10109800EAEC11F0000E526E000E516E000E506E0A
:1010A800000E4F6E000E486E000E476E1200096E5D
:1010B8000950D8B462EF08F064EF08F086EF08F042
:1010C80004BE6BEF08F069EF08F086EF08F001C086
:1010D80005F002C006F003C007F004C008F0051EC2
:1010E800061E071E081E052A000E062207220822D1
:1010F80005C00BF006C00CF007C00DF008C00EF0DC
:101108008EEF08F001C00BF002C00CF003C00DF028
:1011180004C00EF00150021003100410D8A497EF79
:1011280008F099EF08F0A3EF08F0000E016E000E2A
:10113800026E000E036E000E046E34EF09F0960E78
:101148000A6EADEF08F00A2AD8900E320D320C3232
:101158000B32000E0B14056E000E0C14066E000EFA
:101168000D14076EFE0E0E14086E055006100710BB
:101178000810D8A4C2EF08F0C4EF08F0A7EF08F0F1
:10118800D2EF08F00A2A010E0B26000E0C220D22BF
:101198000E22D8900E320D320C320B32000E0B1488
:1011A800056E000E0C14066E000E0D14076EFF0E71
:1011B8000E14086E0550061007100810D8A4E7EFA3
:1011C80008F0E9EF08F0C6EF08F0F1EF08F00A06BA
:1011D800D8900B360C360D360E360DBEF6EF08F0ED
:1011E800F8EF08F000EF09F0020E0A60FEEF08F0D1
:1011F80000EF09F0EBEF08F00AB005EF09F007EF90
:1012080009F008EF09F00D9ED8900A320AC005F0DF
:10121800066A076A086A05C008F0076A066A056A66
:1012280005500B1206500C1207500D1208500E12E2
:101238000950D8B422EF09F024EF09F02CEF09F097
:1012480004BE2BEF09F029EF09F02CEF09F00E8E00
:101258000BC001F00CC002F00DC003F00EC004F08A
:1012680012000C6E4B504C10D8A43DEF09F03FEF24
:1012780009F04DEF09F0B2C003F0B3C004F0CA0E94
:10128800056E8CEC10F0000E4C6E010E4B6E89EC66
:101298000DF0020E0C18D8A454EF09F056EF09F01F
:1012A80073EF09F04B044C10D8A45DEF09F05FEF21
:1012B80009F073EF09F04E5007E1070E4D5CD8B006
:1012C80068EF09F06AEF09F071EF09F0000E00010C
:1012D8009A6F000E996F4D4A4E2A89EC0DF0030E55
:1012E8000C18D8A47AEF09F07CEF09F09AEF09F00E
:1012F8004B044C10D8A483EF09F085EF09F09AEF5E
:1013080009F04E5009E1020E4D5CD8A08EEF09F0AD
:1013180090EF09F098EF09F04D06D8A04E06000EA0
:1013280000019A6F000E996F89EC0DF00C04D8A497
:10133800A0EF09F0A2EF09F0B5EF09F0C2C003F081
:10134800C3C004F0CA0E056E8CEC10F0000E4E6E91
:10135800080E4D6E000E00019A6F010E996F89EC10
:101368000DF0030E0C18D8A4BCEF09F0BEEF09F07D
:10137800D0EF09F0000199059A11D8A4C6EF09F039
:10138800C8EF09F0D0EF09F04D4A4E2A000E9A6FC7
:10139800000E996F89EC0DF0D8904D34D96E4E340B
:1013A800DA6EB20ED926000EDA22DECF03F0DDCFD8
:1013B80004F0CA0E056E8CEC10F0080E4D184E1095
:1013C800D8A4E9EF09F0EBEF09F001EF0AF0020EFB
:1013D8000C18D8B4F2EF09F0F4EF09F0FDEF09F0BA
:1013E800030E0C18D8A4FBEF09F0FDEF09F001EF8C
:1013F8000AF0000E4E6E010E4D6E12001BEC11F03D
:101408004F505010D8A40BEF0AF00DEF0AF013EF6D
:101418000AF0010E6FEC0FF0546E17EF0AF0000E91
:101428006FEC0FF0546E51505210D8A41EEF0AF012
:1014380020EF0AF023EF0AF0545041EC11F0050EAA
:101448005418D8A42AEF0AF02CEF0AF039EF0AF062
:1014580051505210D8A433EF0AF035EF0AF039EFA3
:101468000AF0000E526E010E516E51045210D8A4AB
:1014780040EF0AF042EF0AF045EF0AF0545009EC49
:1014880000F0020E51185210D8A44DEF0AF04FEF99
:101498000AF052EF0AF0545021EC02F0030E5118F2
:1014A8005210D8A45AEF0AF05CEF0AF05EEF0AF087
:1014B800F6EC05F0060E51185210D8A466EF0AF0A3
:1014C80068EF0AF06AEF0AF0E5EC0DF0050E511826
:1014D8005210D8A472EF0AF074EF0AF076EF0AF00F
:1014E80059EC07F0070E51185210D8A47EEF0AF0F5
:1014F80080EF0AF084EF0AF08FEC0BF004EF0AF0AB
:1015080004EF0AF007EF00F0819A818C818E81B296
:1015180090EF0AF092EF0AF095EF0AF0010E0BEF48
:101528000BF081B49AEF0AF09CEF0AF09FEF0AF0F3
:10153800040E0BEF0BF081B6A4EF0AF0A6EF0AF049
:10154800A9EF0AF0070E0BEF0BF081B8AEEF0AF027
:10155800B0EF0AF0B3EF0AF00A0E0BEF0BF0818A36
:10156800819C818E81B2BBEF0AF0BDEF0AF0C0EF1B
:101578000AF0020E0BEF0BF081B4C5EF0AF0C7EFCB
:101588000AF0CAEF0AF0050E0BEF0BF081B6CFEFA9
:101598000AF0D1EF0AF0D4EF0AF0080E0BEF0BF0C7
:1015A80081B8D9EF0AF0DBEF0AF0DEEF0AF00B0E94
:1015B8000BEF0BF0818A818C819E819E81B2E7EFCF
:1015C8000AF0E9EF0AF0ECEF0AF0030E0BEF0BF06C
:1015D80081B4F1EF0AF0F3EF0AF0F6EF0AF0060E25
:1015E8000BEF0BF081B6FBEF0AF0FDEF0AF000EF0E
:1015F8000BF0090E0BEF0BF081B805EF0BF007EFBE
:101608000BF00AEF0BF00C0E0BEF0BF0FF0E1200B5
:101618002A342B34316E3150D8A415EF0BF017EF64
:101628000BF021EF0BF0000E286E000E296E000E55
:101638002A6E000E2B6E8EEF0BF028C02CF029C0FE
:101648002DF02AC02EF02BC02FF0200E31EF0BF01A
:10165800D8902F322E322D322C32E82E2CEF0BF070
:101668002C50306E2A8EFF0E2816FF0E2916FF0EFC
:101678002A16000E2B16960E315E31BE48EF0BF07F
:1016880046EF0BF05EEF0BF03150800A970FD8B0A1
:1016980050EF0BF052EF0BF054EF0BF017EF0BF08D
:1016A800D8902B322A3229322832313E54EF0BF0AF
:1016B80076EF0BF01F0E316464EF0BF066EF0BF062
:1016C8006EEF0BF017EF0BF0D890283629362A3634
:1016D8002B3631063150D8A474EF0BF076EF0BF0AF
:1016E80068EF0BF03050D8B47CEF0BF07EEF0BF0C6
:1016F80086EF0BF02B1E2A1E291E286C000E2922AD
:101708002A222B2228C028F029C029F02AC02AF032
:101718002BC02BF01200000E386E000E376E000E34
:1017280000017C6F030E7B6F000E806F000E7F6FD1
:10173800000E366E000E356E5468000E4E6E0C0E9E
:101748004D6E89EC0DF0000E016E010EEAEC11F001
:101758009A0E036E2F0E046E800E056E8CEC10F040
:10176800000E536E00017F4B802B5C0E036E2E0E15
:10177800046EC00E056E8CEC10F0010E536E050E53
:101788005418D8B4CAEF0BF0CCEF0BF0D5EF0BF030
:10179800060E5418D8A4D3EF0BF0D5EF0BF0FBEFDF
:1017A8000BF0C60E096E2A0E9CEC12F0000E00011A
:1017B800806F000E7F6F050E5418D8A4E6EF0BF06B
:1017C800E8EF0BF0EEEF0BF0310EA06F354A362A3A
:1017D800FBEF0BF0060E5418D8A4F5EF0BF0F7EF5B
:1017E8000BF0FBEF0BF0300EA06FEAEF0BF01200DE
:1017F80001C009F002C00AF003C00BF004C00CF0ED
:101808000506D8A00606052806E10628D8A40FEF85
:101818000CF011EF0CF01EEF0CF0000E026E000E33
:10182800016E62EF0CF0094A0A2A0B4A0C2A0506D7
:10183800D8A0060609C0D9FF0AC0DAFFDF50D8B41D
:1018480028EF0CF02AEF0CF050EF0CF00BC0D9FF8A
:101858000CC0DAFFDF50D8B434EF0CF036EF0CF0E0
:1018680050EF0CF005500610D8B43DEF0CF03FEFE8
:101878000CF050EF0CF00BC0D9FF0CC0DAFF09C018
:10188800E1FF0AC0E2FFDE50E618D8B44EEF0CF0D4
:1018980050EF0CF017EF0CF009C0D9FF0AC0DAFFBF
:1018A800DF50076E0BC0D9FF0CC0DAFFDF50086E9F
:1018B8000850075C016E026AD8A002061200F28A7C
:1018C800F28CF28EF50E036E2E0E046E800E056EEF
:1018D8008CEC10F0B20E036E2F0E046EC00E056E67
:1018E8008CEC10F0C90E096E5AC001F05BC002F012
:1018F800000E046E0A0E036EC8EC0CF00150300F97
:101908009CEC12F0CA0E096E5AC001F05BC002F0DE
:10191800000E046E0A0E036E3EEC0EF00150300FFE
:101928009CEC12F0CC0E036E2F0E046ECB0E056EDF
:101938008CEC10F05A505B10D8A4A5EF0CF0A7EF70
:101948000CF0C7EF0CF0F29AF29CF29E000E016EBA
:10195800010EEAEC11F0000E526E000E516E000EF0
:101968005B6E0A0E5A6E000E0001946F000E936FA4
:10197800000E466E000E456EBEEC12F0000E000121
:10198800986F000E976F1200000E066E04BED1EF1E
:101998000CF0CFEF0CF0D7EF0CF0036C041ED8B0AE
:1019A800042A010E066E02BEDEEF0CF0DCEF0CF02E
:1019B800E4EF0CF0016C021ED8B0022A010E061AE0
:1019C800000E086E000E076E03500410D8B4EFEF37
:1019D8000CF0F1EF0CF019EF0DF0010E056EF9EFB8
:1019E8000CF0D89003360436052A04AEFEEF0CF04E
:1019F80000EF0DF0F5EF0CF0D890073608360350DD
:101A0800015C04500258D8A00CEF0DF00EEF0DF059
:101A180013EF0DF00350015E0450025A0780D8906E
:101A280004320332052E00EF0DF00650D8B41FEF34
:101A38000DF021EF0DF025EF0DF0076C081ED8B062
:101A4800082A07C001F008C002F01200040E66EC74
:101A580011F001C049F002C04AF0AE0E136E470EF5
:101A6800146E250E156E410E166E49C001F04AC05F
:101A780002F0036A046A000E5BEC08F001C00FF084
:101A880002C010F003C011F004C012F029EC04F0F9
:101A98000FC028F010C029F011C02AF012C02BF096
:101AA8000CEC0BF028C049F029C04AF0000E046E77
:101AB8000A0E036E49C001F04AC002F0AAEC0FF00A
:101AC80001C008F002C009F0000E0B6E0A0E0A6E83
:101AD800C2EC10F00850300F32C0D9FF33C0DAFF23
:101AE800DF6E20EE01F03250D9263350DA2249C099
:101AF80008F04AC009F0000E0B6E0A0E0A6EC2EC1E
:101B080010F00850300FDF6E1200000E0B6E000E42
:101B18000A6EE00E0A24D96E000E0B20DA6E600EF3
:101B28000A24E16E000E0B20E26EDFCFE7FF0A4ABF
:101B38000B2A0BBEA9EF0DF00B5009E1080E0A5C49
:101B4800D8A0A9EF0DF0ABEF0DF08DEF0DF0200E42
:101B58000001686F200E696FD8904D34D96E4E34ED
:101B6800DA6EB20ED926000EDA22DECFF6FFDDCF0E
:101B7800F7FF0800F5CF6AF0D8904D34D96E4E348F
:101B8800DA6EB20ED926000EDA22DECF08F0DDCFEB
:101B980009F0010E0826000E092208C0F6FF09C048
:101BA800F7FF0800F5CF6BF0200E6C6F200E6D6FFD
:101BB800AFC06EF0B0C06FF0000E706F2DEC0FF07C
:101BC8001200000E016E010EEAEC11F0000E3C6EE0
:101BD800000E3B6E000E0001886F000E876F000E2E
:101BE8000B6E000E0A6E600E0A24D96E000E0B20D2
:101BF800DA6EDF6A0A4A0B2A0BBE0CEF0EF00B50A6
:101C080009E1110E0A5CD8A00CEF0EF00EEF0EF0F1
:101C1800F7EF0DF0340E036E2E0E046E800E056E77
:101C28008CEC10F0A60E036E2F0E046EC40E056E1B
:101C38008CEC10F0C00E066EC60E076E2D0E086EE8
:101C4800000E096E0606000E075A085A095A062899
:101C58000AE1072808E1082806E10928D8A437EF8F
:101C68000EF039EF0EF026EF0EF0000E526E020E57
:101C7800516E1200000E066E02BE47EF0EF045EFE1
:101C88000EF04DEF0EF0016C021ED8B0022A010EC4
:101C9800066E04BE54EF0EF052EF0EF058EF0EF041
:101CA800036C041ED8B0042A03500410D8B45FEFA4
:101CB8000EF061EF0EF085EF0EF0010E056E69EF84
:101CC8000EF0D89003360436052A04AE6EEF0EF0F7
:101CD80070EF0EF065EF0EF00350015C04500258EF
:101CE800D8A079EF0EF07BEF0EF07FEF0EF00350E7
:101CF800015E0450025AD89004320332052E70EF68
:101D08000EF00650D8B48BEF0EF08DEF0EF091EF79
:101D18000EF0016C021ED8B0022A01C001F002C008
:101D280002F01200000E956E9450F80B946E82909B
:101D3800C30E036ECD0EE82EFED7032EFCD700F09F
:101D4800000E016E330EEAEC11F01B0E036E9E0EB0
:101D5800E82EFED7032EFCD700D0000E016E330EFE
:101D6800EAEC11F0A60EE82EFED700D0000E016EA8
:101D7800330EEAEC11F000D000D000F0000E016E36
:101D8800020EEAEC11F0A60EE82EFED700D0000EE7
:101D9800016E380EEAEC11F0A60EE82EFED700D040
:101DA800000E016E010EEAEC11F0040E036E3E0EF9
:101DB800E82EFED7032EFCD7000E016E0C0EEAECBF
:101DC80011F0A60EE82EFED700D01200020E53EC3A
:101DD80012F00001716F010E53EC12F00001726FE6
:101DE800000E53EC12F00001736F71ADFEEF0EF0B0
:101DF80000EF0FF00BEF0FF071390F0B010B300FE5
:101E0800E06F71510F0B300FE16F14EF0FF0713964
:101E18000F0B030B300FE06F71510F0B300FE16F99
:101E28003A0EE26F72390F0B0F0B300FE36F7251DE
:101E38000F0B300FE46F3A0EE56F73390F0B0F0B72
:101E4800300FE66F73510F0B300FE76F000EE86F1E
:101E580012000001DC4BDD2B0A0EDC19DD11D8A4C1
:101E680038EF0FF03AEF0FF042EF0FF0000EDD6F92
:101E7800000EDC6F000E886F010E876FDC51100DAD
:101E8800F350050F066E000E076E600E0724D96E1C
:101E9800DA6A000EDA22DF50026E06500724ABEC35
:101EA80011F0072A0F0E07645CEF0FF05EEF0FF0DA
:101EB80049EF0FF03CBE6CEF0FF03C5007E1090E04
:101EC8003B5CD8B06AEF0FF06CEF0FF06EEF0FF0DD
:101ED8003B4A3C2A1200016E0104D8A476EF0FF0A9
:101EE80078EF0FF09CEF0FF088EC0AF0556E55284C
:101EF800D8B481EF0FF083EF0FF090EF0FF05C5044
:101F0800D8B489EF0FF08BEF0FF090EF0FF0000EC1
:101F18005C6E5550A9EF0FF05528D8A496EF0FF036
:101F280098EF0FF0A8EF0FF0010E5C6EA8EF0FF01E
:101F38000150D8A4A2EF0FF0A4EF0FF0A8EF0FF014
:101F480088EC0AF0A9EF0FF0FF0E1200000E066EE3
:101F5800000E056E03500410D8B4B5EF0FF0B7EFBC
:101F68000FF0DFEF0FF0010E076EBFEF0FF0D89004
:101F780003360436072A04AEC4EF0FF0C6EF0FF09D
:101F8800BBEF0FF0D890053606360350015C0450BD
:101F98000258D8A0D2EF0FF0D4EF0FF0D9EF0FF01E
:101FA8000350015E0450025A0580D890043203326F
:101FB800072EC6EF0FF005C001F006C002F01200B0
:101FC8000E0EF66E240EF76E000EF86E00EEB2F0EE
:101FD80010EE37F00900F5CFEEFFE550E150FAE1D9
:101FE800FC0EF66E250EF76E000EF86E00EE56F03B
:101FF80010EE07F00900F5CFEEFFE550E150FAE1E9
:1020080001EE00F0220EEE6AE806FDE100EE60F057
:10201800520EEE6AE806FDE100EE35F0210EEE6A9A
:10202800E806FDE15D905D92000EF86E000102EF9A
:102038000AF00001954B962B110E951907E1270E12
:102048009619D8A42AEF10F02CEF10F055EF10F0E5
:1020580043504410D8A433EF10F035EF10F03DEFA3
:1020680010F00B50C00F096E5F0E9CEC12F043EF9E
:1020780010F00B50C00F096E200E9CEC12F043506C
:102088004410D8B44AEF10F04DEF10F0010E4EEFA7
:1020980010F0000E436E446A000E0001966F000EA9
:1020A800956F12005CEF10F0014A022A034A042AD5
:1020B80003C0D9FF04C0DAFF01C0E1FF02C0E2FF9C
:1020C800DE50E618D8A46BEF10F06DEF10F079EF42
:1020D80010F001C0D9FF02C0DAFFDF50D8A477EFB3
:1020E80010F079EF10F058EF10F001C0D9FF02C0DE
:1020F800DAFFDF50056E03C0D9FF04C0DAFFDF50F6
:10210800066E0650055C016E026AD8A0020612002F
:10211800000E016E0550EAEC11F0A9EF10F0010E67
:10212800016E03C0F6FF04C0F7FFF86A050EF764F6
:1021380003D00800F55005D0F6CFE1FFF7CFE2FF56
:10214800E750EAEC11F0034A042A03C0F6FF04C082
:10215800F7FFF86A050EF76403D00800F55005D0BC
:10216800F6CFE1FFF7CFE2FFE7500009D8A4BFEFB1
:1021780010F0C1EF10F093EF10F012000A500B109E
:10218800D8B4C9EF10F0CBEF10F0EFEF10F0010E5C
:102198000C6ED3EF10F0D8900A360B360C2A0BAE23
:1021A800D8EF10F0DAEF10F0CFEF10F00A50085C1B
:1021B8000B500958D8A0E3EF10F0E5EF10F0E9EF65
:1021C80010F00A50085E0B50095AD8900B320A32A8
:1021D8000C2EDAEF10F008C008F009C009F0120060
:1021E8000600F2A4FAEF10F0FCEF10F019EF11F06E
:1021F800080ED624D66E000ED720D76E0001794B74
:102208007A2B210E791907E14E0E7A19D8A40FEF0F
:1022180011F011EF11F018EF11F0000E7A6F000EA7
:10222800796F5A06D8A05B06F2945D92110096EC7D
:102238000EF0D2EC12F07DEC12F0A8EC12F089EC62
:1022480011F0C8EC12F0310E026E000EABEC11F07A
:10225800310E026E010EABEC11F0310E026E020E61
:10226800ABEC11F0310E026E030EABEC11F0000E68
:10227800026E040EABEC11F01200346EAF0E326E2B
:10228800000E336E2AEC0DF0EAEC0EF0C20E036E6F
:102298002E0E046E800E056E8CEC10F0E00E036EB0
:1022A800000E046EC00E056E8CEC10F0AF0E036EBF
:1022B800000E046ECE0E056E8CEC10F0345035EC2A
:1022C80009F01200076E07C003F0D8900336D890C3
:1022D8000336C250C30B0310C26EC282C2B277EF7C
:1022E80011F079EF11F072EF11F0C350C4CF03F081
:1022F800046A03C004F0036A0310056E0450066EF6
:1023080005C001F006C002F01200000E53EC12F0F6
:10231800046E04508009026E000E8DEC12F0020E5D
:1023280053EC12F0000E026E020E8DEC12F0930EBA
:10233800026E070E8DEC12F0000E53EC12F0046ED4
:1023480004507F0B026E000E8DEC12F01200056E29
:10235800FAEC12F0A00EE4EC12F00550E4EC12F0E6
:102368000250E4EC12F0F6EC12F00B0E046EB80E0C
:10237800036E0306D8A00406032806E10428D8A49F
:10238800C8EF11F0CAEF11F0BDEF11F01200000E06
:10239800056E000E046EA50E0424D96E000E0520ED
:1023A800DA6E045068EC12F0DF6E044A052A05BEA6
:1023B800E7EF11F0055009E1050E045CD8A0E7EF3E
:1023C80011F0E9EF11F0CFEF11F01200026E01B039
:1023D800F0EF11F0F3EF11F08282F4EF11F0829236
:1023E80002C083FF82848294958E82808292828446
:1023F800829483BE02EF12F004EF12F0FBEF11F0AB
:102408008290959E1200F22FEF2FD42FD72FDA2F1C
:10241800DD2FE02FF82FD12FEC2FFB2FE92FE62F00
:10242800F52F00007E2E402F672F4D2F5A2F0000CA
:0D243800FFFF050031303A30303A303000FF
:102446002FEF12F002C0F6FF03C0F7FF0800F550A9
:10245600B3EC12F0024A032A02C0F6FF03C0F7FFEC
:102466000800F5500009D8A43BEF12F03DEF12F03A
:1024760025EF12F01200948E949CAC9CAC8AAC981A
:10248600AC96AC84AB8EAB9CAB88B89EB896B89233
:10249600B890810EAF6E9D889E989D8A9E9A120076
:1024A600026EFAEC12F0D00EE4EC12F00250E4ECFC
:1024B60012F0EAEC12F0D10EE4EC12F0EEEC12F0AF
:1024C600036EF6EC12F003501200026EFAEC12F0F4
:1024D600A00EE4EC12F00250E4EC12F0EAEC12F07A
:1024E600A10EE4EC12F0EEEC12F0036EF6EC12F034
:1024F60003501200C08EC09AC088C096C090C08299
:10250600C094C292C19AC198000EC46E000EC36EEA
:10251600C2801200036EFAEC12F0D00EE4EC12F058
:102526000350E4EC12F00250E4EC12F0F6EC12F078
:1025360012000A6E000E016E0950EAEC11F0010E4F
:10254600016E0A50EAEC11F0120094869488280E67
:10255600C66E300EC86EC79CC78E9E96A196120098
:10256600016E9EA8B9EF12F0BBEF12F0B4EF12F0B5
:1025760001C0ADFF1200000E0001AD6FADC0ACF0A2
:10258600ACC0ABF0ABC0AAF01200D58CD59AD58EF4
:10259600D586000ED76E060ED66EF29412000F0E7A
:1025A600C16E1E0E936EF19E8150E009816E12007F
:1025B6009EA6E0EF12F0E2EF12F0DBEF12F09E962D
:1025C6001200016E01C0C9FFDBEC12F01200C582D9
:1025D600DBEC12F01200F2EC12F0C9501200C586C4
:1025E600DBEC12F01200C584DBEC12F01200C580A1
:0D25F600DBEC12F01200010006000A0001EB
:102DE200002A2D2D2D2D2D2D2D2D2D2D446F776E5D
:102DF2006C6F6164696E67202D2D2D2D2D2D2D2D6B
:102E02002A0A0D00232054494D4520202020204528
:102E120056454E542053504545440A0D0020456EF8
:102E2200746572206F6C642070617373776F726463
:102E320020002020204C6F677320436C656172650F
:102E42006420202000456E746572206E65772070C4
:102E5200617373776F72640020202020202020206D
:102E62002020202020202020200050617373776FC3
:102E7200726420206368616E6765640056696577D5
:102E8200204C6F6720202020202020200020575235
:102E92004F4E472050415353574F52442000204534
:102EA2006E7465722050617373776F7264200020B4
:102EB2005375636365737366756C6C792E2E2E0081
:102EC200202054494D452020202045562020535093
:102ED200002320202054494D4520202045562053D0
:102EE200500050617373776F7264206368616E671C
:102EF2006564002020506C656173652054727920EE
:102F02002020002020446F776E6C6F61646564201E
:102F120020005375636365737366756C6C2E2E2E79
:102F220000417474656D707473204C6566743A0068
:102F320052655F656E746572202070776400536518
:102F4200742054696D652020202000436C656172F5
:102F5200204C6F67202020004368616E6765205017
:102F62006173732000446F776E6C6F6164204C6FE5
:102F72006700617474656D7074206C6566740053CB
:102F820075636365737366756C6C7900496E636F04
:102F9200727265637420200020456E746572207021
:102FA200776420003C3C2E2E2E2E2E2E2E3E3E00EE
:102FB200416761696E20696E200020204C6F67694D
:102FC2006E20006661696C6564002073656300436E
:102FD200200047310047320047330047340047356D
:102FE200002D3E00434C00444C00564C00474E001E
:0D2FF2004F4E004350004752005354000062
:020000040020DA
:08000000FFFFFFFFFFFFFFFF00
:020000040030CA
:0E000000FF071F1FFF8285FF0FC00FE00F409C
:00000001FF
